{
  "contractName": "MathTest",
  "abi": [
    {
      "inputs": [
        {
          "internalType": "uint256",
          "name": "a",
          "type": "uint256"
        },
        {
          "internalType": "uint256",
          "name": "b",
          "type": "uint256"
        }
      ],
      "name": "multiply",
      "outputs": [
        {
          "internalType": "uint256",
          "name": "",
          "type": "uint256"
        }
      ],
      "stateMutability": "pure",
      "type": "function"
    }
  ],
  "bytecode": "0x608060405234801561001057600080fd5b506101ee806100206000396000f3fe608060405234801561001057600080fd5b5060043610610048576000357c010000000000000000000000000000000000000000000000000000000090048063165c4a161461004d575b600080fd5b610067600480360381019061006291906100a8565b61007d565b60405161007491906100f3565b60405180910390f35b6000818361008b919061010e565b905092915050565b6000813590506100a2816101a1565b92915050565b600080604083850312156100bb57600080fd5b60006100c985828601610093565b92505060206100da85828601610093565b9150509250929050565b6100ed81610168565b82525050565b600060208201905061010860008301846100e4565b92915050565b600061011982610168565b915061012483610168565b9250817fffffffffffffffffffffffffffffffffffffffffffffffffffffffffffffffff048311821515161561015d5761015c610172565b5b828202905092915050565b6000819050919050565b7f4e487b7100000000000000000000000000000000000000000000000000000000600052601160045260246000fd5b6101aa81610168565b81146101b557600080fd5b5056fea2646970667358221220d35eaf120fbd71d4f81b644e9061eb9823993af5b442daa1707602c6230b7a8964736f6c63430008000033",
  "immutableReferences": {},
  "source": "// SPDX-License-Identifier: MIT\npragma solidity ^0.8.0;\n\ncontract SimpleStorage {\n  uint256 storedData;\n\n  function get() public view returns (uint) {\n    return storedData;\n  }\n\n  function set(uint x) public {\n    storedData = x;\n  }\n\n  function double() public {\n    storedData *= 2;\n  }\n}\n\ncontract MathTest {\n\tfunction multiply(uint a, uint b) public pure returns (uint) {\n    return a*b;\n  }\n}\n",
  "sourcePath": "/Users/mohaijiang/tmp/truffle-webpack/contracts/contract.sol",
  "compiler": {
    "name": "solc",
    "version": "0.8.0+commit.c7dfd78e.Linux.g++"
  },
  "schemaVersion": "3.4.11",
  "updatedAt": "2022-12-12T08:28:40.409Z",
  "devdoc": {
    "kind": "dev",
    "methods": {},
    "version": 1
  },
  "userdoc": {
    "kind": "user",
    "methods": {},
    "version": 1
  }
}