{
  "contractName": "SimpleStorage",
  "abi": [
    {
      "inputs": [],
      "name": "get",
      "outputs": [
        {
          "internalType": "uint256",
          "name": "",
          "type": "uint256"
        }
      ],
      "stateMutability": "view",
      "type": "function"
    },
    {
      "inputs": [
        {
          "internalType": "uint256",
          "name": "x",
          "type": "uint256"
        }
      ],
      "name": "set",
      "outputs": [],
      "stateMutability": "nonpayable",
      "type": "function"
    },
    {
      "inputs": [],
      "name": "double",
      "outputs": [],
      "stateMutability": "nonpayable",
      "type": "function"
    }
  ],
  "bytecode": "0x608060405234801561001057600080fd5b5061021d806100206000396000f3fe608060405234801561001057600080fd5b506004361061005e576000357c01000000000000000000000000000000000000000000000000000000009004806360fe47b1146100635780636d4ce63c1461007f5780638fdb71891461009d575b600080fd5b61007d600480360381019061007891906100ea565b6100a7565b005b6100876100b1565b6040516100949190610122565b60405180910390f35b6100a56100ba565b005b8060008190555050565b60008054905090565b60026000808282546100cc919061013d565b92505081905550565b6000813590506100e4816101d0565b92915050565b6000602082840312156100fc57600080fd5b600061010a848285016100d5565b91505092915050565b61011c81610197565b82525050565b60006020820190506101376000830184610113565b92915050565b600061014882610197565b915061015383610197565b9250817fffffffffffffffffffffffffffffffffffffffffffffffffffffffffffffffff048311821515161561018c5761018b6101a1565b5b828202905092915050565b6000819050919050565b7f4e487b7100000000000000000000000000000000000000000000000000000000600052601160045260246000fd5b6101d981610197565b81146101e457600080fd5b5056fea2646970667358221220bc829e81dad20ef7a65147e25c135ed209cb0c7ad5aa900e0e0fd362c2067bcf64736f6c63430008000033",
  "immutableReferences": {},
  "source": "// SPDX-License-Identifier: MIT\npragma solidity ^0.8.0;\n\ncontract SimpleStorage {\n  uint256 storedData;\n\n  function get() public view returns (uint) {\n    return storedData;\n  }\n\n  function set(uint x) public {\n    storedData = x;\n  }\n\n  function double() public {\n    storedData *= 2;\n  }\n}\n\ncontract MathTest {\n\tfunction multiply(uint a, uint b) public pure returns (uint) {\n    return a*b;\n  }\n}\n",
  "sourcePath": "/Users/mohaijiang/tmp/truffle-webpack/contracts/contract.sol",
  "compiler": {
    "name": "solc",
    "version": "0.8.0+commit.c7dfd78e.Linux.g++"
  },
  "schemaVersion": "3.4.11",
  "updatedAt": "2022-12-12T08:28:40.409Z",
  "devdoc": {
    "kind": "dev",
    "methods": {},
    "version": 1
  },
  "userdoc": {
    "kind": "user",
    "methods": {},
    "version": 1
  }
}